:100000000C9486000C94A7000C94A7000C94A700F5
:100010000C94A7000C94A7000C94A7000C94A700C4
:100020000C94A7000C94A7000C94A7000C94A700B4
:100030000C94A7000C94A7000C94A7000C94A700A4
:100040000C94A7000C94AD070C94A7000C94A70087
:100050000C94A7000C94A7000C94A7000C94A70084
:100060000C94A7000C94A7000C94A7000C94A70074
:100070000C94A7000C94A7000C94A7000C94A70064
:100080000C94A7000C94A7000C94A7000C94A70054
:100090000C94A7000C94A7000C94A7000C94A70044
:1000A0000C94A7000C94A7000C94A7000C94A70034
:1000B0000C94A7000C94A7000C94A7000C94A70024
:1000C0000C94A7000C94A7000C94A7000C94A70014
:1000D0000C94A7000C94A7000C94A7000C94A70004
:1000E0000C94A70005A84CCDB2D44EB93836A9025D
:1000F0000C50B9918688083CA6AAAA2ABE00000026
:10010000803F2D2D00200030002E000011241FBE46
:10011000CFEFD1E2DEBFCDBF00E00CBF12E0A0E028
:10012000B2E0EAEEF9E100E00BBF02C007900D92E9
:10013000A034B107D9F722E0A0E4B2E001C01D92DB
:10014000AE35B207E1F70E94020A0C94F30C0C944E
:100150000000E8E0F1E080818B7F808385E08A9574
:10016000F1F7000080818460808395E09A95F1F733
:10017000000080818B7F80838FE891E00197F1F709
:1001800000C000000895CF93DF931F92CDB7DEB774
:10019000909108019E7F90930801909108019D7FA6
:1001A00090930801909107019860909307019091B6
:1001B00007019061909307019091070190629093DD
:1001C00007019091070190649093070190910801B5
:1001D00084FF02C0986001C0977F909308019091BE
:1001E000080185FF02C0906101C09F7E90930801C5
:1001F0009091080186FF02C0906201C09F7D90939C
:1002000008019091080187FF02C0906401C09F7BA4
:100210009093080189830E94A90089819091080127
:1002200080FF02C0986001C0977F90930801909171
:10023000080181FF02C0906101C09F7E9093080178
:100240009091080182FF02C0906201C09F7D90934F
:10025000080183FF04C080910801806403C080917D
:1002600008018F7B809308010F90DF91CF910C9450
:10027000A900CF93DF931F92CDB7DEB7909108010D
:10028000916090930801909108019D7F90930801DF
:1002900090910701986090930701909107019061F8
:1002A00090930701909107019062909307019091BC
:1002B00007019064909307019091080184FF02C0A8
:1002C000986001C0977F909308019091080185FF85
:1002D00002C0906101C09F7E909308019091080137
:1002E00086FF02C0906201C09F7D909308019091AB
:1002F000080187FF02C0906401C09F7B90930801B2
:1003000089830E94A90089819091080180FF02C021
:10031000986001C0977F909308019091080181FF38
:1003200002C0906101C09F7E9093080190910801E6
:1003300082FF02C0906201C09F7D9093080183FFFD
:1003400004C080910801806403C0809108018F7B04
:10035000809308010F90DF91CF910C94A9008CE05D
:100360000C94C30088E00C94C30081E00E94C30099
:100370008FE39FE10197F1F700C0000008952FEF90
:1003800080E792E0215080409040E1F700C00000FB
:10039000E8E0F1E080818E7F808380818D7F8083A3
:1003A00080818B7F808383E00E94C3008FE19EE485
:1003B0000197F1F700C0000083E00E94C3008FE1C5
:1003C0009EE40197F1F700C0000083E00E94C300A3
:1003D0008FEC97E00197F1F700C0000082E00E94E7
:1003E000C30088E20E94C30088E00E94C3000E940C
:1003F000B50186E00C94C300853008F084E06531D7
:1004000008F064E1823059F020F4813059F480E042
:1004100009C0833031F0843029F484E503C080E4DE
:1004200001C084E16150680F862F80680C94C3007E
:100430000C943901CF93DF93EC018991882319F053
:100440000E943901FACFDF91CF910895CF93DF93C6
:10045000EC01FE018491882331F0FE0184910E9419
:1004600039012196F6CFDF91CF910895CF93DF9395
:10047000CDB7DEB764970FB6F894DEBF0FBECDBF21
:100480004AE0BE016F5F7F4F0E94BE0CCE01019615
:100490000E941A0264960FB6F894DEBF0FBECDBF5D
:1004A000DF91CF910895EF92FF921F93CF93DF9347
:1004B0001F921F92CDB7DEB78770880F880F880F05
:1004C000806469837A830E94C3006981E62E7A8101
:1004D000F72E18E0F70181917F010E943901115038
:1004E000C9F70F900F90DF91CF911F91FF90EF9080
:1004F00008950C94390180910002813021F080919F
:1005000056028130A9F461E081E00E94FC018091F3
:1005100055028A3020F487E091E00E942602809103
:10052000550290E00E94360289E091E00E94260286
:1005300080910002813021F0809154028130A9F431
:1005400064E081E00E94FC01809153028A3020F433
:1005500087E091E00E9426028091530290E00E9481
:10056000360289E091E00E942602809100028130EB
:1005700021F080915202813089F469E081E00E948B
:10058000FC01809151028A3020F487E091E00E94C2
:1005900026028091510290E00E9436028091000272
:1005A000813031F46BE00E94FC018AE30E94180262
:1005B00080910002813021F080915002813089F4D5
:1005C0006CE081E00E94FC0180914F028A3020F4AF
:1005D00087E091E00E94260280914F0290E00E9405
:1005E000360280910002813061F465E172E080E0C2
:1005F0000E94530264E181E00E94FC0180E00E94BD
:100600007902809100028130B9F46DE072E00E94BD
:1006100053026FE083E00E94FC0181E00E947902B6
:1006200065E072E082E00E94530264E183E00E9490
:10063000FC0182E00E94790280915B02813009F026
:1006400058C068E083E00E94FC0180915A028A3021
:1006500034F48A3048F485E091E00E94260285E077
:1006600091E00E94260203C0875F8930C0F3809129
:100670005A02992787FD90950E9436026CE083E02C
:100680000E94FC0180915C028A3034F48A3048F484
:1006900085E091E00E94260285E091E00E9426021A
:1006A00003C0875F8930C0F380915C02992787FD82
:1006B00090950E94360261E183E00E94FC018091E6
:1006C0005D028A3034F48A3048F485E091E00E947B
:1006D000260285E091E00E94260203C0875F8930F0
:1006E000C0F380915D02992787FD90950E943602A4
:1006F00018C069E083E00E94FC0182E091E00E9462
:1007000026026DE083E00E94FC0182E091E00E94FD
:10071000260262E183E00E94FC0182E091E00E94F7
:10072000260282E0809300020895A895E0E6F0E0BA
:1007300080818061808380818860808380818860FF
:10074000808380818F7D80838081846080838081AD
:100750008260808380818E7F8083089510928000E4
:10076000E1E8F0E010821092820080818460808352
:1007700080818160808380818860808388E09DE3C0
:100780009093890080938800EFE6F0E0808182609A
:1007900080830895279AE7E0F1E08081816080837B
:1007A0008081826080838081846080838081886092
:1007B000808380818061808380818062808380816A
:1007C000806480830895BC015098589A5198599A32
:1007D00080E89EE30E94090A7727605171097695A7
:1007E00067956093B800E9EBF0E080818E7F8083AD
:1007F00080818D7F8083ECEBF0E08081806480835A
:100800008081846080830895862B1092410210922B
:10081000400240ED57E02091400230914102283ED5
:10082000334008F054C09091BC0090629093BC009B
:100830009091BC0090689093BC009091BC00906433
:100840009093BC009091BC0094609093BC009091F8
:10085000BC0097FFFCCF9091B900987F983011F0C1
:10086000903151F58093BB009091BC009F7D909397
:10087000BC009091BC0090689093BC009091BC002B
:1008800090649093BC009091BC0094609093BC00E5
:100890009091BC0097FFFCCF9091B900987F6111B7
:1008A00003C0983129F415C0613011F4903489F0F7
:1008B0005093410240934002209140023091410206
:1008C0002F5F3F4F3093410220934002A4CF82E03C
:1008D000089581E008958093BB008091BC008068FA
:1008E0008093BC008091BC0080648093BC008091A8
:1008F000BC0084608093BC008091BC0087FFFCCF6B
:100900008091B900887F883211F481E0089582E0F7
:100910000895613031F0623049F42091BC002F7BA2
:1009200003C02091BC0020642093BC002091BC0037
:1009300020682093BC002091BC0024602093BC0060
:100940002091BC0027FFFCCF2091BB00FC0120833D
:1009500008958091BC0080618093BC008091BC00B0
:1009600080648093BC008091BC0080688093BC0050
:100970008091BC0084608093BC008091BC0084FDA9
:10098000FCCF08954F925F926F927F928F929F92C9
:10099000AF92BF92CF92DF92EF92FF92CF93DF930D
:1009A000CDB7DEB72C970FB6F894DEBF0FBECDBF24
:1009B0004B015A019B01215031092230310520F4AD
:1009C00001972CE0820E911CBC0180E090E00E9417
:1009D000220B20E030E643E955E40E941E0A20E0A5
:1009E00030EA46EB53E40E94110C0E94F60A0E9482
:1009F000220B6B017C01B40180E090E00E94220B8D
:100A000020E030E040E85FE30E941E0A21E03DEC78
:100A100044EF51E40E94110C0E94F60A0E94220B3E
:100A20009B01AC01C701B6010E941E0A6B017C014B
:100A3000B50180E090E00E94220B9B01AC01C70150
:100A4000B6010E941E0A20E030E040E551E40E9419
:100A50001D0A20E030E94EEB54E40E941D0A24E612
:100A600031EA45E15AE40E941D0A20E03DEA4EE0E9
:100A700057E40E94890A6B017C019B01AC010E9432
:100A8000110C2B013C01A70196010E94110C6983F6
:100A90007A838B839C83A70196010E94110C69873E
:100AA0007A878B879C8724E63AE649ED58E4C701AC
:100AB000B6010E94110C23ED3CEE44E953E40E9480
:100AC0001E0A4B015C0121E73DEA46EF5AEBC301E8
:100AD000B2010E94110C9B01AC01C501B4010E943E
:100AE0001E0A4B015C0124E231EE45EF55E36981BA
:100AF0007A818B819C810E94110C9B01AC01C50104
:100B0000B4010E941E0A4B015C0124E632EF47E16A
:100B100052EB69857A858B859C850E94110C9B011F
:100B2000AC01C501B4010E941E0A6D837E838F83D0
:100B300098872DE03FE94CE057E4C701B6010E94D9
:100B4000110C2AEB33EC42EB53E40E941E0A4B01DA
:100B50005C012FE03BE741E259EBC301B2010E9487
:100B6000110C9B01AC01C501B4010E941E0A4B018E
:100B70005C012CED31E049EE58E4C701B6010E945A
:100B8000110C22EA36EF46E053E40E941E0A6B0184
:100B90007C012BE93AE34FE05CE3C301B2010E9420
:100BA000110C9B01AC01C701B6010E941E0A6B012A
:100BB0007C0126EA35EB40E757E369817A818B8136
:100BC0009C810E94110C9B01AC01C701B6010E94DF
:100BD0001E0A6B017C012AED37EF41E953EB698571
:100BE0007A858B859C850E94110C9B01AC01C70105
:100BF000B6010E941E0A6B017C012D813E814F814E
:100C0000588560E070E084E393E40E941D0A2B01A4
:100C10003C0125E33AEF4EE85CE3C701B6010E94D0
:100C2000110C0E94740C2DE73FE349EC50E40E9444
:100C3000110C9B01AC01C301B2010E941D0A2B01E2
:100C40003C012AE530E64FE253E369817A818B81EA
:100C50009C810E94110C9B01AC01C501B4010E9452
:100C60001E0A25E33AEF4EE85CE30E94110C0E9455
:100C7000740C26E636E646E050E40E94110C9B0117
:100C8000AC01C301B2010E941E0A2B013C012D815F
:100C90003E814F815885CA01B9010E941E0A4B014D
:100CA0005C01A70196010E941D0A25E33AEF4EE878
:100CB0005CE30E94110C0E94740C2FE632E143EABF
:100CC0005FE30E94110C9B01AC01C301B2010E94C1
:100CD0001D0A2B013C0125E33AEF4EE85CE3C50118
:100CE000B4010E94110C0E94740C20EB32E748E220
:100CF0005FE30E94110C9B01AC01C301B2010E9491
:100D00001D0A4B015C01A7019601C701B6010E94B3
:100D10001E0A25E33AEF4EE85CE30E94110C0E94A4
:100D2000740C21ED32E24BE55EE30E94110C9B0155
:100D3000AC01C501B4010E941D0A6B017C0125E3D1
:100D40003AEF4EE85CE36D817E818F8198850E9449
:100D5000110C0E94740C2EEA37E441EE5DE30E9410
:100D6000110C9B01AC01C701B6010E941D0A25E3CD
:100D70003AEF4EE85CE30E94110C6B017C010E948B
:100D8000860A20E030E040E85FE30E941E0A20E08F
:100D900030E040E05FE30E94110C20E030E048ECDE
:100DA00052E40E94110C0E94F60A60934B02C701A4
:100DB000B6010E94740C6B017C012FE632E143E81E
:100DC0005AE30E940D0C181614F481E00DC02FE6B2
:100DD00032E143E85AE3C701B6010E94820A87FF65
:100DE00002C082E001C083E080934C022C960FB6D3
:100DF000F894DEBF0FBECDBFDF91CF91FF90EF9093
:100E0000DF90CF90BF90AF909F908F907F906F902A
:100E10005F904F90089580910102813019F41092F3
:100E2000010204C080915402813061F44091530268
:100E300050E06091550270E0809157029091580205
:100E40000C94C2040895CF9390914D029F5F9093AC
:100E50004D0282E0809350028093520280935402AC
:100E600080935602809359029C3309F061C010921E
:100E70004D0280914F028F5F80934F0291E09093DB
:100E800050028C3309F054C010924F0280915102ED
:100E90008F5F8093510290935202883109F048C0CD
:100EA00010925102409153024F5F4093530290932E
:100EB0005402C0915502C230B1F4209157023091D2
:100EC0005802C90160E971E00E94090A892B89F082
:100ED000C90164E670E00E94090A892B21F02370A1
:100EE0003327232B31F0EC2FF0E0E35EFD4F8081C0
:100EF00001C08DE190E00196242F30E08217930726
:100F0000B9F421E020935302CF5FC09355022093A0
:100F10005602CD3069F4209355028091570290918A
:100F200058020196909358028093570220935902D9
:100F3000CF910895EF920F939093580280935702A8
:100F400060935502409353022093510200934F0245
:100F5000E0924D020F91EF9008951F920F920FB6FD
:100F60000F9211248F9381E0809303028F910F9051
:100F70000FBE0F901F901895EF920F93F8940E9458
:100F8000AE030E94CA0384E690E00E94E3030E943D
:100F9000BF010E94AF010E94B5010E9492082F98E4
:100FA0002FEF87EA91E6215080409040E1F700C0A2
:100FB000000082E3E82E0BE327E140E168E08DEDDD
:100FC00097E00E949A0778940F91EF90089512E0AD
:100FD000C4E6D0E0209103022130E1F78091840043
:100FE00090918500909349028093480210930302E8
:100FF00080910202823021F4209302022F9A07C0CE
:1010000080910202813019F4109302022F980E94FD
:1010100023070E940B070E94C3080E947B02809155
:10102000840090918500909347028093460261E08E
:1010300084E00E94FC018AE292E00E941A02609120
:101040004602709147028091480290914902A09017
:101050008800B0908900681B790B80E090E00E94C6
:10106000220B6B017C01B50180E090E00E94220B15
:101070009B01AC01C701B6010E94890A20E030E45F
:101080004CE156E40E94110C0E94F60A709345024E
:101090006093440261E084E00E94FC01809144027C
:1010A00090914502BE010E94090ACB010E943602BE
:1010B0008EE20E9418028091440290914502BE0186
:1010C0000E94090A0E943602209144023091450292
:1010D00080914202909143028217930740F48091DD
:1010E00044029091450290934302809342026AE049
:1010F00084E00E94FC018091420290914302BE0173
:101100000E94090ACB010E9436028EE20E94180258
:101110008091420290914302BE010E94090A0E94FE
:10112000360258CF1F93CF93DF9310925A02C2E03A
:10113000C0935B0283E680935C028DE980935D023D
:10114000D1E0D093040260E082E90E940404182FE9
:10115000813099F48CEA0E946B04D82F813051F4CD
:1011600081E00E946B04813041F40E94A904C09385
:10117000040205C01093040202C0D0930402DF9160
:10118000CF911F9108958F929F92AF92BF92CF926D
:10119000DF92EF92FF920F931F93CF93DF9300D0D4
:1011A0001F92CDB7DEB71C821B821A8219828091F2
:1011B0000402833069F038F4813009F406C18230CA
:1011C00009F4FBC008C1843091F0853011F103C1EE
:1011D00080914A02813029F410924A0284E080937F
:1011E000040280914A028F5F80934A02FAC060E055
:1011F00082E90E940404182F813009F0EFC08EEEBE
:101200000E946B04813009F0DDC00E94A90485E0D2
:10121000E6C060E082E90E940404182F813009F0E2
:10122000DDC08AEA0E946B04082F813009F0CAC031
:1012300061E082E90E940404182F813009F0BFC0E8
:1012400061E0CE0104960E94890462E0CE0103961B
:101250000E9489040E94A90460E082E90E940404BB
:10126000082F8130D1F488EA0E946B04813091F418
:1012700061E082E90E940404813041F462E0CE0121
:1012800002960E9489040E94A90409C081E080930B
:10129000040205C00093040202C01093040260E03F
:1012A00082E90E940404082F8130D1F489EA0E9467
:1012B0006B04182F813089F461E082E90E940404F4
:1012C000813041F462E0CE0101960E9489040E94BF
:1012D000A90409C01093040206C00093040203C0CD
:1012E00081E080930402BC80B0925A0281E0809336
:1012F0005B02698170E080E090E00E94220B6B014C
:101300007C016B2D70E080E090E00E94220B20E0D9
:1013100030E040E85EE30E941D0A4B015C016A81F7
:1013200070E080E090E00E94220B9B01AC01C701BD
:10133000B6010E941D0AA70196010E94890A9B011D
:10134000AC01C501B4010E941E0A6B017C0162E080
:1013500083E00E94FC01C701B6010E94F10A4B0123
:101360005C01CB010E9436028EE20E941802B40199
:10137000882777FD8095982F0E94240B9B01AC0154
:10138000C701B6010E941D0A20E030E040E251E4AE
:101390000E94110C0E94F10ACB010E94360280913A
:1013A0005A0290915C02891714F480935C02909128
:1013B0005D02981714F480935D0283E010C00093DF
:1013C00004020FC0109304020CC082E080935B0201
:1013D0000E94920806C082E080935B0281E08093C5
:1013E00004020F900F900F900F90DF91CF911F91FB
:1013F0000F91FF90EF90DF90CF90BF90AF909F90B4
:101400008F9008950E94BC070E94E70780E090E05B
:101410000895AA1BBB1B51E107C0AA1FBB1FA6173B
:10142000B70710F0A61BB70B881F991F5A95A9F78D
:1014300080959095BC01CD0108955058BB27AA27EF
:101440000ED0A0C169D130F06ED120F031F49F3FB1
:1014500011F41EF45EC10EF4E095E7FB54C1E92FD0
:10146000B3D180F3BA17620773078407950718F0A2
:1014700071F49EF5CBC10EF4E0950B2EBA2FA02D82
:101480000B01B90190010C01CA01A0011124FF2731
:10149000591B99F0593F50F4503E68F11A16F0402C
:1014A000A22F232F342F4427585FF3CF469537952B
:1014B0002795A795F0405395C9F77EF41F16BA0BF0
:1014C000620B730B840BBAF09150A1F0FF0FBB1F9E
:1014D000661F771F881FC2F70EC0BA0F621F731FE7
:1014E000841F48F4879577956795B795F7959E3F44
:1014F00008F0B3CF9395880F08F09927EE0F9795D2
:1015000087950895DCD008F481E0089514D1E3951F
:101510004AC10CD037C107D140F0FED030F021F4E1
:101520005F3F19F0F0C0511172C1F3C04DD198F373
:101530009923C9F35523B1F3951B550BBB27AA2754
:1015400062177307840738F09F5F5F4F220F331FC6
:10155000441FAA1FA9F333D00E2E3AF0E0E830D092
:1015600091505040E695001CCAF729D0FE2F27D095
:10157000660F771F881FBB1F261737074807AB0763
:10158000B0E809F0BB0B802DBF01FF2793585F4FD8
:101590002AF09E3F510568F0B6C039C15F3FECF3B9
:1015A000983EDCF3869577956795B795F7959F5F9D
:1015B000C9F7880F911D9695879597F90895E1E0F1
:1015C000660F771F881FBB1F621773078407BA0750
:1015D00020F0621B730B840BBA0BEE1F88F7E095AB
:1015E000089504D06894B11112C10895F5D088F01F
:1015F0009F5790F0B92F9927B751A0F0D1F0660FFF
:10160000771F881F991F1AF0BA95C9F712C0B13019
:1016100081F0FCD0B1E00895F9C0672F782F8827BA
:10162000B85F39F0B93FCCF3869577956795B39558
:10163000D9F73EF490958095709561957F4F8F4FC7
:101640009F4F0895E89409C097FB3EF490958095CC
:10165000709561957F4F8F4F9F4F9923A9F0F92F78
:1016600096E9BB279395F695879577956795B795F6
:10167000F111F8CFFAF4BB0F11F460FF1BC06F5FDC
:101680007F4F8F4F9F4F16C0882311F096E911C0EE
:10169000772321F09EE8872F762F05C0662371F00F
:1016A00096E8862F70E060E02AF09A95660F771F23
:1016B000881FDAF7880F9695879597F90895990FFF
:1016C0000008550FAA0BE0E8FEEF16161706E8070C
:1016D000F907C0F012161306E407F50798F0621B2D
:1016E000730B840B950B39F40A2661F0232B242B02
:1016F000252B21F408950A2609F4A140A6958FEF21
:10170000811D811D089597F99F6780E870E060E072
:1017100008959FEF80EC089500240A94161617068A
:1017200018060906089500240A94121613061406D2
:1017300005060895EECF50D0E8F3E894E0E0BB272B
:101740009F57F0F02AED3FE049EC06C0EE0FBB0FCB
:10175000661F771F881F28F0B23A62077307840755
:1017600028F0B25A620B730B840BE3959A9572F7CB
:10177000803830F49A95BB0F661F771F881FD2F709
:101780009048BAC0092E0394000C11F4882352F03B
:10179000BB0F40F4BF2B11F460FF04C06F5F7F4F9D
:1017A0008F4F9F4F0895EF93E0FF06C0A2EA2AED06
:1017B0003FE049EC5FEB53DEE5DF0F90039401FC63
:1017C0009058E4EEF0E0A4C057FD9058440F551F28
:1017D00059F05F3F71F04795880F97FB991F61F0B3
:1017E0009F3F79F087950895121613061406551F2A
:1017F000F2CF4695F1DF08C0161617061806991F96
:10180000F1CF86957105610508940895E894BB278A
:1018100066277727CB0197F9089551DF08F48FEFFA
:1018200008950BD0AFCF78DF28F07DDF18F0952337
:1018300009F069CF6ECF1124EACFC6DFA0F3959FE0
:10184000D1F3950F50E0551F629FF001729FBB27A7
:10185000F00DB11D639FAA27F00DB11DAA1F649F53
:101860006627B00DA11D661F829F2227B00DA11D06
:10187000621F739FB00DA11D621F839FA00D611D8C
:10188000221F749F3327A00D611D231F849F600DAD
:10189000211D822F762F6A2F11249F5750408AF0E6
:1018A000E1F088234AF0EE0FFF1FBB1F661F771F72
:1018B000881F91505040A9F79E3F510570F023CFEB
:1018C000A6CF5F3FECF3983EDCF38695779567955E
:1018D000B795F795E7959F5FC1F7FE2B880F911D90
:1018E0009695879597F908959F9325DF0F9007FCAC
:1018F000EE5F59CF9F3F31F0915020F48795779557
:101900006795B795880F911D9695879597F90895D6
:101910009F938F937F936F93FF93EF939B01AC0102
:1019200080DFEF91FF9105D02F913F914F915F9113
:1019300078CFDF93CF931F930F93FF92EF92DF92B5
:101940007B018C01689405C0DA2EEF0176DFFE0181
:10195000E894A5912591359145915591AEF3EF010C
:101960007EDDFE019701A801DA9479F7DF90EF9010
:10197000FF900F911F91CF91DF910895BB274A30BF
:1019800031F4992322F4BDE2909581959F4F0C94F8
:10199000CA0CBB27FB015527AA27880F991FAA1F2E
:1019A000A41710F0A41B83955051B9F7A05DAA337A
:1019B00008F0A95DA193009779F7B111B193119245
:1019C000CB010C94E30CDC01FC01672F71917723B0
:1019D000E1F7329704C07C916D9370836291AE17EA
:0A19E000BF07C8F30895F894FFCF85
:1019EA0001010202010E040E150404040404040495
:1019FA0004150E040E0E1F1F1F1F1F1F1F1D1F1C65
:101A0A001F1E1F1E1F1F1E1F1E1F202020202020DA
:101A1A0020202020202020202020202020200000FC
:00000001FF
